:020000020000FC
:0200000055C0E9
:0800040016D1189509D11895D9
:04005000C7D0189568
:0400640050D11895CA
:1000AC000FEF0DBF0AE00EBF00E00AB90FEF0BB95E
:1000BC000FEF04B90AE00093690008E90093C90046
:1000CC000EE00093CA0000E00093CD000FEC00930B
:1000DC00CC0000E00093800004E00093810049D242
:1000EC006AD286D2789410E020E030E070E016D12D
:1000FC000FEFA4D07DD2F2D003E00DBB60D0F8940A
:10010C0000E00DBB75D2BB27AA27012F97D0A32FD8
:10011C0084D1022F93D0B32F36D1BBD152D1CFD1B2
:10012C001F932F931A2F2B2F2ED17DD14AD191D1E2
:10013C002F911F9172D1789401E071E003E00DBB17
:10014C003ED070E00DBB71E068D1033011F004308B
:10015C0011F096D001C0A6D060D14AD205D02FD0D4
:10016C0047D200E00DBBBECF0F931F932F930BD143
:10017C0090D1FFD1012F021B003091F01030B1F063
:10018C00203041F00F3F91F00E3F21F0013011F083
:10019C00023061F0E2E3F5E0CAE3D5E044D10BC0F4
:1001AC00E8E1F5E0C2E2D5E03ED105C0EAE2F5E0D7
:1001BC00C2E3D5E038D12F911F910F9108950F9381
:1001CC0001E000936F0005B1006F05B92F99FECFC8
:1001DC000F91089508E40093850004EE00938400C9
:1001EC000F930FB70F932C9905C02D9905C02E991D
:1001FC0005C006C02C9808C02D9806C02E9804C0C7
:10020C002F9800E000936F000F910FBF0F9108958E
:10021C000F930FB70F9370FFA5D070FD27D00F91E0
:10022C000FBF0F9108950F930FB70F9370FF89D0E5
:10023C0070FD12D00F910FBF0F9108950F9367D0DF
:10024C00F89430E80093CE0062D0789400005FD030
:10025C003038A9F30F91089500E00DBBEAE0F5E00A
:10026C00C2E1D5E0E0D003E0E9DF089500E00DBB8A
:10027C00EAE0F5E0C2E1D5E0ECD004E0DFDF089580
:10028C00313011F0323039F0122FEAE0F5E0C2E1F2
:10029C00D5E0FFD005C0EAE0F5E0C2E1D5E00FD132
:1002AC002B2F0895313011F0323039F0122FEAE053
:1002BC00F5E0C2E1D5E0EDD005C0EAE0F5E0C2E141
:1002CC00D5E0FDD02A2F08950F93012FB7DF0F91A2
:1002DC0008950F93012FB2DF0F910895EF93FF93C1
:1002EC00CF93DF93E0E7F5E0CAE7D5E09CD095D05B
:1002FC00DF91CF91FF91EF9108950F930FB70F936B
:10030C003091CE0004D00F910FBF0F9108950F9331
:10031C000091C80005FFE1F70F9108950F93EAE3F0
:10032C00F5E0C2E4D5E07FD0E2E4F5E0C2E5D5E04B
:10033C00B0D04F99FECF000000004F9BFECF0F9125
:10034C0008950F934D990CC0133011F0139501C003
:10035C0011E0EAE0F5E0C2E1D5E09BD014D099D0F1
:10036C000F9108950F934C990CC0233011F02395E5
:10037C0001C021E0EAE0F5E0C2E1D5E0A0D021D057
:10038C009ED00F9108950F93103031F0113049F039
:10039C00123061F0133079F0EAE0F5E0C2E1D5E01B
:1003AC000EC0EAE7F5E0CEE7D5E009C0E2E1F5E002
:1003BC00C8E1D5E004C0E2E2F5E0CAE2D5E00F9175
:1003CC0008950F93203031F0213049F0223061F044
:1003DC00233079F0EAE0F5E0C2E1D5E00EC0EAE7BF
:1003EC00F5E0CEE7D5E009C0E2E1F5E0C8E1D5E003
:1003FC0004C0E2E2F5E0CAE2D5E00F9108950F9354
:10040C0005B1006F05B909D02C9807D02D9805D0EF
:10041C002E9803D02F980F9108950F93B09BFECF79
:10042C00B09A0F9108950F93AF93BF93EF93FF93EF
:10043C00CF93DF93A0E0B1E005910D93EC17E1F7BA
:10044C00C1D0DF91CF91FF91EF91BF91AF910F91FF
:10045C0008950F93AF93BF93EF93FF93CF93DF93D5
:10046C00AE2FBF2FEC2FFD2FCA2FDB2FA0E1B1E059
:10047C0004910C9331971197EC17D1F704910C93CD
:10048C00A1D0DF91CF91FF91EF91BF91AF910F91DF
:10049C0008950F93AF93BF93EF93FF93CF93DF9395
:1004AC00A0E1B1E005910D93EC17E1F796D0DF9147
:1004BC00CF91FF91EF91BF91AF910F9108950F9351
:1004CC00AF93BF93EF93FF93CF93DF93AE2FBF2FD9
:1004DC00EC2FFD2FCA2FDB2FA0E2B1E004910C937F
:1004EC0031971197EC17D1F704910C9376D0DF91DB
:1004FC00CF91FF91EF91BF91AF910F910895202073
:10050C00202020202020706170657220596F75208A
:10051C0044726177212073636973736F7220596F12
:10052C0075204C6F7365596F752057696E2177650F
:10053C006C636F6D6520506C6561736520507265DE
:10054C0073732050443752656164792C205761696C
:10055C0074696E67666F7220746865206F70706F57
:10056C006E656E7447616D65205374617274526F61
:10057C00636B0F93229A219A209A289A819A3F9A18
:10058C00809A88980E94AA03889A0CE50CBD01E019
:10059C000DBD289802EAD2D000ECD0D001E8CED024
:1005AC000FE0CCD002E2CAD00FE2C8D00FEAC6D01E
:1005BC00289A0F910895479A08954798089502D064
:1005CC000CD00895BF93AF931F9313E0B1E0A0E05C
:1005DC005CD01F91AF91BF910895BF93AF931F93C0
:1005EC0011E0B1E0A0E151D01F91AF91BF910895FE
:1005FC0022D027D00895BF93AF930F931F93B1E0F0
:10060C00A0E010E100E20D931A95E9F71F910F910C
:10061C00AF91BF910895BF93AF930F931F93B1E028
:10062C00A0E110E100E20D931A95E9F71F910F91EB
:10063C00AF91BF9108951F9313E060D0DCDF1F9141
:10064C0008951F9311E05AD0E6DF1F9108950F9380
:10065C006F935F93BF93AF93043618F043E01396F8
:10066C0007C00A3018F042E0129602C0119641E021
:10067C0076D000E3060F0E93052F0030C9F7AF912B
:10068C00BF915F916F910F9108950F921F920F93ED
:10069C002F933F938F939F93EF93FF9397E086EB6A
:1006AC00289822E000E14AD000E048D000EB012B72
:1006BC0045D030E10D9000E1009EFC01E00DF11DF4
:1006CC0008E004900EBC899A329604901DB417FE73
:1006DC00FDCF0A95B9F73A9569F72A9521F01A9545
:1006EC0050970196DFCF289AFF91EF919F918F91B0
:1006FC003F912F910F911F900F9008950F931F9280
:10070C002F933F93289832E000E118D000E016D0E8
:10071C0000EB012B13D020E80027899A0EBD1DB4E5
:10072C0017FEFDCF2A95D1F73A9511F01A95ECCF1B
:10073C00289A3F912F911F900F9108950EBD899883
:10074C000DB507FFFDCF08950F931F931BE002EF2C
:10075C000A95F1F71A95D9F71F910F9108950F92F9
:10076C00502F56955695500F5695500F56955695A9
:10077C005695500F5695500F569556955695500FB9
:10078C005695500F5695569556955695652F660F5E
:10079C00660F650F660F062E602F60196A3018F011
:1007AC0053956A50FBCF0F90089500000FF008107E
:1007BC000810081008100FF0000003FE7FFA83F6F3
:1007CC0083EA83D683AA7F5603FE5554AAAA5554AE
:1007DC00AAAA5554AAAA5554AAAA5554AAAA555419
:1007EC00AAAA5554AAAA5554AAAA5554AAAA555409
:1007FC00AAAA5554AAAA5554AAAA5554AAAA5554F9
:10080C00AAAA5554AAAA5554AAAA5554AAAA5554E8
:10081C00AAAA5554AAAA5554AAAA000007000880EF
:10082C00088008800700000000005554AAAA5554FF
:10083C00AAAA5554AAAA5554AAAA5554AAAA5554B8
:10084C00AAAA5554AAAA5554AAAA5554AAAA5554A8
:10085C00AAAA5554AAAA5554AAAA008000800080BE
:10086C000080FF80000000000000008000800080FD
:10087C00008000FE000000000000000000000000EE
:10088C00000000FE008000800080000000000000DE
:10089C000000FF80008000800080008000800080CD
:1008AC000080FFFE0080008000805554AAAA555499
:1008BC00AAAA5554AAAA5554AAAA5554AAAA555438
:1008CC00AAAA5554AAAA5554AAAA0080008000804E
:1008DC00008000800080008000805554AAAA5554E6
:1008EC00AAAA5554AAAA5554AAAA5554AAAA555408
:1008FC00AAAA5554AAAA5554AAAA0000000000009E
:10090C000000FFFE008000800080008000800080DE
:10091C000080FFFE000000000000008000800080CE
:10092C000080FF80008000800080008000800080BC
:10093C00008000FE008000800080000000000000AD
:10094C000000FFFE0000000000005554AAAA5554F8
:10095C00AAAA5554AAAA5554AAAA5554AAAA555497
:10096C00AAAA5554AAAA5554AAAA5554AAAA555487
:10097C00AAAA5554AAAA5554AAAA5554AAAA555477
:10098C00AAAA5554AAAA5554AAAA000001100120DB
:10099C0007E009200910081004205554AAAA555440
:1009AC00AAAA5554AAAA5554AAAA000000000000ED
:1009BC00000000000000000000000000000000002B
:1009CC001F300000000000000000000000001E00AE
:1009DC00000000001E0000000000000002400FF0AC
:1009EC00024002400FF00240000000000000062010
:1009FC0009203938092008C0000000000C201240E2
:100A0C0012800D6002900490086000000CE013103E
:100A1C0013100C90006000600190000000000000BA
:100A2C001E0000000000000000000000000000009C
:100A3C0003E00C181004000000000000000010047B
:100A4C000C1803E00000000000000000008002A071
:100A5C0001C001C002A000800000000000800080E6
:100A6C00008007F000800080008000000000000083
:100A7C000032003C000000000000000000800080FC
:100A8C00008000800080008000000000000000005A
:100A9C00003000300000000000000000000C0030AE
:100AAC0000C003000C0000000000000007E008502C
:100ABC00089009100A1007E0000000000000021066
:100ACC0004100FF00010001000000000041008309B
:100ADC0008500890091006100000000008200810AB
:100AEC0009100B100D1008E00000000000C00140C0
:100AFC00024004400FF00040000000000F200910DD
:100B0C0009100910091008E00000000003E00510AE
:100B1C0009100910011000E0000000000800080096
:100B2C00083008C00B000C000000000006E00910A3
:100B3C0009100910091006E00000000007000880E9
:100B4C000890089008A007C00000000000000000FA
:100B5C00063006300000000000000000000000001D
:100B6C000632063C0000000000000000000000807F
:100B7C00014002200410000000000000024002406E
:100B8C00024002400240024000000000000004103D
:100B9C00022001400080000000000000080010004E
:100BAC0011301200140008000000000007F00808C3
:100BBC0011C4122412240A4407E4000003F0048038
:100BCC0008800880048003F0000000000FF009107A
:100BDC0009100910091006E00000000003C00420F1
:100BEC000810081008100810000000000FF0081082
:100BFC0008100810042003C0000000000FF00910BA
:100C0C000910091009100810000000000FF009006D
:100C1C0009000900090008000000000003C00420BE
:100C2C0008100810089008F0000000000FF00100F8
:100C3C000100010001000FF000000000000008108E
:100C4C0008100FF0081008100000000000600010E1
:100C5C000010001000100FE0000000000FF00180E9
:100C6C000180024004200810000000000FF000106A
:100C7C000010001000100010000000000FF0040025
:100C8C0002000180020004000FF000000FF00400CD
:100C9C000200010000800FF00000000007E00810C7
:100CAC0008100810081007E0000000000FF0088082
:100CBC0008800880088007000000000007E008108A
:100CCC0008100810081807E4000000000FF0088056
:100CDC00088008C008A007100000000006100910CA
:100CEC000910089008900860000000000800080037
:100CFC0008000FF008000800080000000FE00010CA
:100D0C000010001000100FE0000000000F0000C0E9
:100D1C000030003000C00F00000000000FF0001089
:100D2C00002000C0002000100FF000000C3002402A
:100D3C000180018002400C30000000000C00020019
:100D4C00010000F0010002000C0000000830085007
:100D5C00089009100A100C10081000000000000088
:100D6C001FFC100410041004000000000C00030011
:100D7C0000C00030000C0000000000001004100443
:100D8C0010041FFC00000000000000000200040022
:100D9C00080004000200000000000004000400042D
:100DAC000004000400040004000400000000000023
:100DBC001000080004000000000000000060029019
:100DCC0002900290029001F0000000001FF0011050
:100DDC0002100210021001E00000000001E00210FD
:100DEC0002100210021001200000000001E00210AD
:100DFC000210021002201FF00000000001E002901F
:100E0C00029002900290019000000000020002008B
:100E1C000FF01200120012000000000001E002129C
:100E2C0002120212021203FC000000001FF001006B
:100E3C0002000200020001F000000000000002109D
:100E4C0002101BF000100010000000000000000257
:100E5C00020202021BFC0000000000001FF0004018
:100E6C000080014002200010000000001000100063
:100E7C001FE00010001000100000000003F0020042
:100E8C00020001F00200020001F0000003F001007A
:100E9C0002000200020001F00000000001E002105C
:100EAC0002100210021001E00000000003FE01100D
:100EBC0002100210021001E00000000001E002101C
:100ECC0002100210022003FE0000000003F00100DB
:100EDC00020002000200010000000000011002905C
:100EEC00029002500250022000000000020002009A
:100EFC000FE00210021002100000000003E00010CE
:100F0C0000100010002003F000000000030000C0DF
:100F1C000030003000C003000000000003E00010AF
:100F2C00001001E00010001003E00000021001208E
:100F3C0000C000C0012002100000000003E00012FD
:100F4C0000120012002203FC00000000021002300C
:100F5C0002500290031002100000000000000080FC
:100F6C0000800F7810041004000000000000000046
:100F7C0000003FFC00000000000000001004100402
:100F8C000F780080008000000000000006000800C0
:100F9C0008000400020002000C005554AAAA555483
:100FAC00AAAA5554AAAA5554AAAA5554AAAA555441
:100FBC00AAAA5554AAAA5554AAAA5554AAAA555431
:100FCC00AAAA5554AAAA5554AAAA5554AAAA555421
:100FDC00AAAA5554AAAA5554AAAA5554AAAA555411
:100FEC00AAAA5554AAAA5554AAAA5554AAAA555401
:100FFC00AAAA5554AAAA5554AAAA5554AAAA5554F1
:10100C00AAAA5554AAAA5554AAAA5554AAAA5554E0
:10101C00AAAA5554AAAA5554AAAA5554AAAA5554D0
:10102C00AAAA5554AAAA5554AAAA5554AAAA5554C0
:10103C00AAAA5554AAAA5554AAAA5554AAAA5554B0
:10104C00AAAA5554AAAA5554AAAA5554AAAA5554A0
:10105C00AAAA5554AAAA5554AAAA5554AAAA555490
:10106C00AAAA5554AAAA5554AAAA5554AAAA555480
:10107C00AAAA5554AAAA5554AAAA5554AAAA555470
:10108C00AAAA5554AAAA5554AAAA5554AAAA555460
:10109C00AAAA5554AAAA5554AAAA5554AAAA555450
:1010AC00AAAA5554AAAA5554AAAA5554AAAA555440
:1010BC00AAAA5554AAAA5554AAAA5554AAAA555430
:1010CC00AAAA5554AAAA5554AAAA5554AAAA555420
:1010DC00AAAA5554AAAA5554AAAA5554AAAA555410
:1010EC00AAAA5554AAAA5554AAAA5554AAAA555400
:1010FC00AAAA5554AAAA5554AAAA5554AAAA5554F0
:10110C00AAAA5554AAAA5554AAAA5554AAAA5554DF
:10111C00AAAA5554AAAA5554AAAA5554AAAA5554CF
:10112C00AAAA5554AAAA5554AAAA5554AAAA5554BF
:10113C00AAAA5554AAAA5554AAAA5554AAAA5554AF
:10114C00AAAA5554AAAA5554AAAA5554AAAA55549F
:10115C00AAAA5554AAAA5554AAAA5554AAAA55548F
:10116C00AAAA5554AAAA5554AAAA5554AAAA55547F
:10117C00AAAA5554AAAA5554AAAA5554AAAA55546F
:10118C00AAAA5554AAAA5554AAAA5554AAAA55545F
:10119C00AAAA5554AAAA5554AAAA5554AAAA55544F
:1011AC00AAAA5554AAAA5554AAAA000000000000E5
:1011BC000000000000000000000000000000000023
:1011CC00033E0000000000000000000003C00420EB
:1011DC0004201FF80420042002400000011001200C
:1011EC0007E009200910081004200000042003C0A7
:1011FC000240024003C0042000000000080005402B
:10120C00034001F00340054008000000000000000E
:10121C0000000F3C0000000000005554AAAA5554D1
:10122C00AAAA5554AAAA5554AAAA00000000600004
:10123C0000000000600000000000000003C004205B
:10124C0009900A500A50042003C05554AAAA5554B8
:10125C00AAAA5554AAAA5554AAAA00000080014073
:10126C00022004900140022004105554AAAA55549F
:10127C00AAAA5554AAAA5554AAAA00000080008014
:10128C00008000800080008000005554AAAA5554AC
:10129C00AAAA5554AAAA5554AAAA5554AAAA55544E
:1012AC00AAAA5554AAAA5554AAAA00000700088055
:1012BC00088008800700000000005554AAAA555465
:1012CC00AAAA5554AAAA5554AAAA5554AAAA55541E
:1012DC00AAAA5554AAAA5554AAAA5554AAAA55540E
:1012EC00AAAA5554AAAA5554AAAA5554AAAA5554FE
:1012FC00AAAA5554AAAA5554AAAA5554AAAA5554EE
:10130C00AAAA5554AAAA5554AAAA5554AAAA5554DD
:10131C00AAAA5554AAAA5554AAAA5554AAAA5554CD
:10132C00AAAA5554AAAA5554AAAA00000000000261
:10133C000002000C0000000000005554AAAA5554ED
:10134C00AAAA5554AAAA5554AAAA5554AAAA55549D
:10135C00AAAA5554AAAA5554AAAA000004100220FD
:10136C00014004900220014000805554AAAA555413
:10137C00AAAA5554AAAA5554AAAA5554AAAA55546D
:10138C00AAAA5554AAAA5554AAAA5554AAAA55545D
:10139C00AAAA5554AAAA5554AAAA00000000000CE7
:1013AC00001203220002000400000000007043C081
:1013BC002C400C4003C0007000000000007003C003
:1013CC000C402C4043C0007000000000007023C093
:1013DC004C404C4023C0007000000000207043C003
:1013EC004C402C4023C0407000000000007063C0D3
:1013FC000C400C4063C0007000000000007033C053
:10140C004C404C4033C0007000000000007003C022
:10141C000C400FF0091009100810000003C0042242
:10142C000812081C08100810000000000FF04910EA
:10143C002910091009100810000000000FF0091005
:10144C000910291049100810000000000FF0291095
:10145C004910491029100810000000000FF0691005
:10146C000910091069100810000000000000081095
:10147C0048102FF0081008100000000000000810A1
:10148C0008102FF048100810000000000000081091
:10149C0028104FF028100810000000000000081061
:1014AC0068100FF0681008100000000001000FF029
:1014BC00091009100810042003C000002FF044008C
:1014CC004200210020804FF00000000003C00420E7
:1014DC00481028100810042003C0000003C004208A
:1014EC00081028104810042003C0000003C004207A
:1014FC00281048102810042003C0000003C024202A
:10150C00481048102810242043C0000003C0642059
:10151C00081008100810642003C00000000002200E
:10152C0001400080014002200000000003C804308C
:10153C00085009900A100C2013C000000FE0401056
:10154C002010001000100FE0000000000FE0001051
:10155C000010201040100FE0000000000FE02010E1
:10156C004010401020100FE0000000000FE0601051
:10157C000010001060100FE0000000000C00620072
:10158C00010000F0010062000C0000000FF00420CC
:10159C0004200420042003C00000000007F0080011
:1015AC00080009100B1004E000000000006012900D
:1015BC000A900290029001F000000000006002907E
:1015CC0002900A90129001F00000000000600A9056
:1015DC00129012900A9001F0000000000860129026
:1015EC0012900A900A9011F00000000000601A900E
:1015FC00029002901A9001F00000000000603290FE
:10160C004A904A90329001F0000000000060029075
:10161C00029001E0029002900190000001E00212A1
:10162C000212021C021001200000000001E01290C6
:10163C000A900290029001900000000001E00290DC
:10164C0002900A90129001900000000001E00A90B4
:10165C00129012900A9001900000000001E01A9084
:10166C00029002901A9001900000000000001210ED
:10167C000A1003F00010001000000000000002101F
:10168C0002100BF0101000100000000000000A10F7
:10169C00121013F0081000100000000000001A10C7
:1016AC00021003F0181000100000000001E00A10F6
:1016BC002A101A10161021E0000000000BF0120086
:1016CC0012000A000A0011F00000000001E01210E4
:1016DC000A100210021001E00000000001E00210EC
:1016EC0002100A10121001E00000000001E00A10C4
:1016FC00121012100A1001E00000000009E0121094
:10170C0012100A100A1011E00000000001E01A107B
:10171C00021002101A1001E000000000008000808E
:10172C0006B006B0008000800000000001E8023026
:10173C0002500290031005E00000000003E01010BE
:10174C0008100010001003F00000000003E000106F
:10175C0000100810101003F00000000003E0081047
:10176C0010101010081003F00000000003E0181017
:10177C0000100010181003F00000000003E000122D
:10178C0000120812101203FC000000001FFE0210D1
:10179C0002100210021001E00000000003E0181219
:0A17AC0000120012181203FC0000E6
:00000001FF
